:020000040800F2
:1000000000000220592F0008A12B0008A32B000894
:10001000A52B0008A72B0008A92B00080000000052
:10002000000000000000000000000000AB2B0008F2
:10003000AD2B000800000000AF2B0008B12B00081A
:10004000A92F0008A92F0008A92F0008A92F000830
:10005000A92F0008A92F0008A92F0008A92F000820
:10006000A92F0008A92F0008A92F0008A92F000810
:10007000A92F0008A92F0008A92F0008A92F000800
:10008000A92F0008A92F0008A92F0008A92F0008F0
:10009000B92B0008A92F0008A92F0008A92F0008D4
:1000A000A92F0008A92F0008A92F0008A92F0008D0
:1000B000A92F0008A92F0008A92F0008A92F0008C0
:1000C000A92F0008A92F0008A92F0008A92F0008B0
:1000D000A92F0008A92F0008A92F0008C92B000884
:1000E000A92F0008A92F0008A92F0008A92F000890
:1000F000A92F0008A92F0008A92F0008A92F000880
:10010000A92F0008A92F0008A92F0008A92F00086F
:10011000A92F0008A92F0008D92B0008E92B0008F7
:10012000A92F0008A92F0008A92F0008A92F00084F
:10013000A92F0008A92F0008A92F0008A92F00083F
:10014000A92F0008A92F0008A92F0008A92F00082F
:10015000A92F0008A92F0008A92F0008F92B0008D3
:10016000A92F0008A92F0008A92F0008A92F00080F
:10017000A92F0008A92F0008A92F000800000000DF
:08018000A92F0008A92F0008B7
:1001900010B5054C237833B9044B13B10448AFF3C1
:1001A00000800123237010BD7400002000000000B7
:1001B000B038000808B5034B1BB103490348AFF33F
:1001C000008008BD0000000078000020B038000862
:1001D00053B94AB9002908BF00281CBF4FF0FF31AE
:1001E0004FF0FF3000F072B9ADF1080C6DE904CEAC
:1001F00000F006F8DDF804E0DDE9022304B0704702
:100200002DE9F047089E04468846002B4BD18A42D0
:10021000154667D9B2FA82F24AB1C2F1200701FA53
:1002200002F320FA07F7954047EA030894404FEAA3
:10023000154E230CB8FBFEF71FFA85FC0EFB178842
:1002400043EA084307FB0CF1994209D9EB1807F17F
:10025000FF3080F01B81994240F21881023F2B440D
:100260005B1AA4B2B3FBFEF00EFB103344EA034466
:1002700000FB0CFCA44509D92C1900F1FF3380F0D8
:100280000781A44540F2048102382C4440EA07402B
:10029000A4EB0C0400271EB1D4400023C6E90043A0
:1002A0003946BDE8F0878B4209D9002E00F0EB807B
:1002B0000027C6E9000138463946BDE8F087B3FAA1
:1002C00083F7002F47D18B4202D3824200F2FA809B
:1002D000841A61EB030301209846002EE0D0C6E9A2
:1002E0000048DDE702B9FFDEB2FA82F2002A40F0F0
:1002F0008F80491B4FEA154E1FFA85F80127B1FB85
:10030000FEFC230C0EFB1C1143EA014308FB0CF11D
:10031000994207D9EB180CF1FF3002D2994200F252
:10032000CD808446591AA3B2B1FBFEF00EFB101427
:1003300043EA044408FB00F8A04507D92C1900F152
:10034000FF3302D2A04500F2B6801846A4EB0804A1
:1003500040EA0C409FE7C7F1200CBB4022FA0CFE9C
:100360004EEA030E01FA07F420FA0CF521FA0CF319
:100370004FEA1E482543B3FBF8F92C0C08FB193350
:100380001FFA8EFA44EA034309FB0AF49C4202FA7C
:1003900007F200FA07F10BD91EEB030309F1FF3056
:1003A00080F087809C4240F28480A9F10209734466
:1003B0001B1BADB2B3FBF8F008FB103345EA034456
:1003C00000FB0AFAA24508D91EEB040400F1FF3332
:1003D0006BD2A24569D90238744440EA0940A0FBB7
:1003E0000289A4EB0A044C45C2464B4654D351D073
:1003F000002E69D0B1EB0A0564EB030404FA0CFC8F
:10040000FD40FC404CEA0505C6E90054002747E7DB
:10041000C2F1200320FA03F7954001FA02F021FA15
:1004200003F34FEA154E3843010CB3FBFEF71FFAF6
:1004300085F80EFB173341EA034107FB08F38B42B3
:1004400004FA02F407D9691807F1FF3C2FD28B4256
:100450002DD9023F2944CB1A81B2B3FBFEF00EFB2B
:10046000103341EA034100FB08F38B4207D96918B6
:1004700000F1FF3C17D28B4215D902382944C91A22
:1004800040EA07473BE73746304609E70746E7E6D5
:100490001846FBE64145ABD2B8EB020A69EB0E0207
:1004A00001381346A4E76046E9E7184695E7674632
:1004B000D1E781467CE702382C4447E7ACF1020CD7
:1004C0002B442FE7384608E73746E9E6704700BF78
:1004D00001F0FF01102A2BDB10F0070F08D010F8F5
:1004E000013B013A8B422DD010F0070F42B3F6D1F9
:1004F000F0B441EA012141EA014122F007047FF012
:1005000000070023F0E80256083C85EA010586EA68
:10051000010685FA47F5A3FA87F586FA47F6A5FAA4
:1005200087F68EB9EED1F0BC01F0FF0102F00702B0
:1005300032B110F8013B013A83EA010313B1F8D15B
:100540000020704701387047002D06BF354603383C
:10055000073815F0010F07D1013015F4807F02BF75
:10056000013015F4C03F0130F0BC0138704700BFC6
:1005700010B504460E4B18784FF47A73B3FBF0F3C2
:100580000C4A1068B0FBF3F000F080FC68B90F2C47
:1005900001D901200AE0002221464FF0FF3000F08F
:1005A00033FC034B5C60002000E0012010BD00BF65
:1005B000000000200C00002008B50B4B1A6842F424
:1005C00000721A601A6842F480621A601A6842F473
:1005D00080721A60032000F005FC0020FFF7C8FFBE
:1005E00002F0C2FA002008BD003C0240034A116834
:1005F000034B1B780B441360704700BF3001002091
:1006000000000020014B1868704700BF3001002037
:1006100038B50446FFF7F6FF0546B4F1FF3F02D0B8
:10062000044B1B781C44FFF7EDFF401BA042FAD39C
:1006300038BD00BF00000020002800F0A18038B5C0
:10064000044690F82030D3B12268136823F00203E7
:100650001360FFF7D7FF054623685A6812F0020FB0
:1006600010D0FFF7CFFF401B0A28F5D9636A43F487
:1006700000336362052384F82030012038BD01F087
:10068000E7FDE1E71A6842F001021A60FFF7BAFFDE
:10069000054623685A6812F0010F0DD1FFF7B2FF2B
:1006A000401B0A28F5D9636A43F4003363620523CB
:1006B00084F820300120E1E7227E012A3DD01A682B
:1006C00022F080021A60637E012B3BD022681368FF
:1006D00023F040031360A37E012B39D022681368F6
:1006E00023F020031360E37E012B37D022681368C8
:1006F00043F010031360237F012B35D02268136869
:1007000023F008031360637F012B33D02268136842
:1007100023F004031360A368E268134322691343C0
:10072000626913436268013A21681343CB61002078
:100730006062012384F82030A0E71A6842F080024A
:100740001A60C0E72268136843F040031360C2E7F1
:100750002268136843F020031360C4E7226813681B
:1007600023F010031360C6E72268136843F0080300
:100770001360C8E72268136843F004031360CAE7F4
:100780000120704790F82030013BDBB2012B05D9E6
:10079000436A43F4802343620120704770B4434BA3
:1007A000D3F8002242F00102C3F80022D3F800225D
:1007B00022F47C52C3F80022D3F80022486A42EAAD
:1007C0000022C3F800224A6902F01F02012000FA49
:1007D00002F2D3F81C42D0430440C3F81C42CB6958
:1007E000B3B9324BD3F80C420440C3F80C42CE6884
:1007F0008D884C6945EA0645483443F834508E6884
:100800000C884D6944EA0644483503EBC5035C6037
:10081000CB69012B1DD08B69002B32D1234CD4F82E
:1008200004320340C4F804320B698BBB1F4BD3F86E
:1008300014422040C3F814020B6A012B2FD01B4A2C
:10084000D2F8003223F00103C2F80032002070BC5D
:100850007047164BD3F80C421443C3F80C420E6891
:100860008D884C6945EA0645483443F834508E6813
:100870008C894D6944EA0644483503EBC5035C6046
:10088000C9E70A4CD4F804321343C4F80432CBE766
:100890000648D0F814321343C0F81432CCE70349A9
:1008A000D1F81C321A43C1F81C22C8E7006400408A
:1008B00038B590F82030DBB2012B05D0436A43F401
:1008C00000234362012038BD0446022380F8203013
:1008D0000268136823F001031360FFF793FE0546D7
:1008E00023685B6813F0010F0DD0FFF78BFE401BF0
:1008F0000A28F5D9636A43F400336362052384F858
:1009000020300120DFE700206062DCE770B490F85F
:1009100020400568AD68013CE4B2012C06D9436A69
:1009200043F480234362012070BC704715F0E05F00
:100930005BD0C5F30165022D3ED80124AC401C609C
:100940008B68002B3ED10E68CB68046843EA46569C
:1009500005F118031B01E65003680C6905F1180640
:1009600003EB06135C600B7D012B36D0D1799379B4
:100970001B0443EA0163517943EA012314790168B6
:1009800023432C012144C1F88C31D17893781B0486
:1009900043EA0163517843EA0123117802680B436B
:1009A0002244C2F88831026818352D01535943F0AA
:1009B000010353510020B7E7436A43F40003436245
:1009C0000120B1E74C6843EAC403CC6806682343BE
:1009D00005F1180424013351BEE7036803EB061345
:1009E000596841F480715960C0E7436A43F40013C9
:1009F0004362012098E790F82030013BDBB2012BE5
:100A000001D90020704703689B68890631EA030317
:100A100001D0012070470020704730B490F820408A
:100A2000013CE4B2012C06D9436A43F480234362BB
:100A3000012030BC704700296FD10468E46814F0CD
:100A4000030F64D0056801F11B0424012C5904F044
:100A500004049460002C6BD1056801F11B0424018F
:100A60002C59640D1460056801F11B0424012D59F3
:100A700005F00205D560056825446D6805F00F0591
:100A80001561056825446D68C5F3072595610568FE
:100A90002C446468240C546104680A011444D4F89A
:100AA000B8411C7004681444D4F8B841C4F3072456
:100AB0005C7004681444D4F8B841C4F307449C70D3
:100AC00004681444D4F8B841240EDC70046814445B
:100AD000D4F8BC411C7104681444D4F8BC41C4F37C
:100AE00007245C7104681444D4F8BC41C4F307447F
:100AF0009C7104682244D2F8BC21120EDA71F9B953
:100B00000268D36843F02003D360002091E7436A72
:100B100043F40013436201208BE70468246914F056
:100B2000030F8FD1436A43F400134362012080E72F
:100B3000056801F11B0424012C59E408546092E774
:100B40000268136943F020031361002071E790F8F5
:100B50002030013BDBB2012B05D9436A43F48023EB
:100B600043620120704702685369194351610020B4
:100B700070477047704770477047704770477047BD
:100B8000704770477047704770472DE9F84F05462A
:100B900003685C695F689E68D3F80C90D3F8108096
:100BA000D3F818A014F0010F5AD016F0010F17D087
:100BB00001229A6016F0020F08D116F0040F30D10E
:100BC00016F0080F07D04FF4805B0BE0FFF7D1FF62
:100BD0004FF0000B06E0FFF7CFFF4FF0000B01E0F6
:100BE0004FF0000B16F4807F0BD02B684FF480720F
:100BF0009A6016F4007F17D116F4806F18D04BF46A
:100C0000005B16F4803F2DD02B684FF480329A6041
:100C100016F4003F16D116F4802F17D04BF4004B7A
:100C200020E04FF4006BDDE72846FFF7A3FFE8E77D
:100C300016F4006F02D04BF4804BE2E72846FFF732
:100C40009CFFDEE72846FFF796FF0BE016F4002F27
:100C500002D04BF4803B05E02846FFF78FFF01E010
:100C60004FF0000B14F0080F07D019F0100F04D04C
:100C70004BF4007B2B681022DA6014F0040F02D0D2
:100C800019F0080F60D114F0020F04D02B68DB6854
:100C900013F0030F5FD114F0400F07D018F0100FBE
:100CA00004D04BF4806B2B6810221A6114F0200FD3
:100CB00002D018F0080F52D114F0100F04D02B6896
:100CC0001B6913F0030F51D114F4003F02D017F049
:100CD000100F4FD114F4803F02D017F0080F50D1FD
:100CE00014F4004F67D017F0040F61D014F4807F24
:100CF00004D01AF0010F01D04BF0010B14F4007F67
:100D000004D01AF0020F01D04BF0020B14F4806FE4
:100D100004D01AF0040F01D04BF0040B14F4006F50
:100D200046D01AF0700A43D0BAF1300F48D02FD90C
:100D3000BAF1500F47D0BAF1600F47D0BAF1400F67
:100D400031D14BF0400B2EE02B680822DA602846A8
:100D5000FFF715FF97E7284601F0A6FE9BE72B68F3
:100D600008221A612846FFF70CFFA5E72846FFF77F
:100D700007FFA9E72B6810225A602846FFF702FFF9
:100D8000A8E72B6808225A602846FFF7FCFEA7E771
:100D9000BAF1100F05D0BAF1200F04D14BF0100BAF
:100DA00001E04BF0080B2A68936923F0700393610C
:100DB0002B6804225A60BBF1000F0AD1BDE8F88FFE
:100DC0004BF0200BEFE74BF0800BECE74BF4807B14
:100DD000E9E76B6A43EA0B036B622846FFF7D4FE30
:100DE000ECE70000074AD36823F4E0631B041B0C04
:100DF000000200F4E060184340F0BF6040F40030AF
:100E0000D060704700ED00E030B4174BDB68C3F3EF
:100E10000223C3F10704042C28BF04241D1D062D42
:100E200018D9033B4FF0FF3505FA04F421EA040119
:100E3000994005FA03F322EA0303194300280BDB68
:100E40000901C9B200F1604000F5614080F800136B
:100E500030BC70470023E5E700F00F000901C9B27C
:100E6000024B1954F4E700BF00ED00E014ED00E080
:100E7000002807DB00F01F02400901239340024ACB
:100E800042F82030704700BF00E100E00138B0F1C7
:100E9000807F0AD2064B5860064AF02182F8231060
:100EA0000020986007221A6070470120704700BF39
:100EB00010E000E000ED00E090F83530DBB2022BEE
:100EC00003D08023436501207047052380F8353027
:100ED0000268136823F001031360002070470000CC
:100EE00000230F2B00F2D780F0B583B039E0072242
:100EF00000E00022AA403A430234674D45F824201E
:100F0000664A1468F24302EA04054F6817F4803F0A
:100F100001D046EA0405614C2560646802EA0405D4
:100F20004F6817F4003F01D046EA04055B4C65604A
:100F3000A46802EA04054F6817F4801F01D046EA4E
:100F40000405564CA560E46822404D6815F4001F66
:100F500001D046EA0402514CE26001330F2B00F24B
:100F6000988001229A400C6804EA0206B242F4D149
:100F70004C68651E012D03D9112C01D0122C12D101
:100F800085685F000324BC4025EA0405CC68BC40AA
:100F90002C438460456825EA02054C68C4F30012BE
:100FA0009A402A434260C4685F000322BA40D24399
:100FB00014408D68BD402543C5604C68022C01D0AB
:100FC000122C13D1DD08083550F825E003F0070492
:100FD0004FEA840C0F2404FA0CF42EEA040E0C6978
:100FE00004FA0CF444EA0E0440F825400468224058
:100FF0004C6804F00304BC40224302604A6812F0CB
:10100000805FAAD000220192254A546C44F48044A7
:101010005464526C02F480420192019A9C08A51C0F
:101020001D4A52F8257003F0030295000F22AA40D2
:1010300027EA02071B4A90423FF45BAF02F5806249
:1010400090421AD002F58062904218D002F5806278
:10105000904216D002F58062904214D002F5806270
:10106000904212D002F58062904210D002F5806268
:1010700090423FF43CAF08223CE701223AE70222CB
:1010800038E7032236E7042234E7052232E7062256
:1010900030E703B0F0BD704700380140003C01402C
:1010A000003802400000024012B909048161704713
:1010B00081617047436931EA030301D08161704760
:1010C0000904816170470000002800F0E48170B5D8
:1010D00082B00446036813F0010F3BD0A74B9B6816
:1010E00003F00C03042B2CD0A44B9B6803F00C03DF
:1010F000082B21D06368B3F5803F4FD0B3F5A02F04
:1011000052D09E4B1A6822F480321A601A6822F478
:1011100080221A606368002B50D0FFF773FA0546EF
:10112000964B1B6813F4003F14D1FFF76BFA401B7A
:101130006428F5D90320B3E1904B5B6813F4800F6A
:10114000D8D08E4B1B6813F4003F03D06368002B8C
:1011500000F0A381236813F0020F55D0874B9B68E2
:1011600013F00C0F3ED0854B9B6803F00C03082B4B
:1011700033D0E368002B68D0814B01221A60FFF75F
:1011800041FA05467D4B1B6813F0020F54D1FFF75F
:1011900039FA401B0228F5D9032081E1774A136808
:1011A00043F480331360B5E7744B1A6842F480222D
:1011B0001A601A6842F480321A60ABE7FFF722FA2D
:1011C00005466E4B1B6813F4003FC3D0FFF71AFAB5
:1011D000401B6428F5D9032062E1684B5B6813F477
:1011E000800FC6D1654B1B6813F0020F04D0E36873
:1011F000012B01D0012053E1604A136823F0F8036A
:10120000216943EAC1031360236813F0080F40D03B
:10121000636963B35B4B01221A60FFF7F3F905467C
:10122000564B5B6F13F0020F33D1FFF7EBF9401B06
:101230000228F5D9032033E1504A136823F0F8035C
:10124000216943EAC1031360DEE74D4B00221A60B7
:10125000FFF7D8F90546494B1B6813F0020FD3D0AE
:10126000FFF7D0F9401B0228F5D9032018E1454BC0
:1012700000221A60FFF7C6F90546404B5B6F13F07A
:10128000020F06D0FFF7BEF9401B0228F5D9032054
:1012900006E1236813F0040F79D0384B1B6C13F070
:1012A000805F33D100230193344B1A6C42F080529B
:1012B0001A641B6C03F080530193019B0125324B90
:1012C0001B6813F4807F23D0A368012B34D0052B37
:1012D00038D02A4B1A6F22F001021A671A6F22F0D7
:1012E00004021A67A368002B36D0FFF78BF9064675
:1012F000224B1B6F13F0020F48D1FFF783F9801BBD
:1013000041F288339842F3D90320C9E00025D6E79B
:101310001D4A136843F480731360FFF773F90646A0
:10132000194B1B6813F4807FCED1FFF76BF9801B3C
:101330000228F5D90320B3E0104A136F43F00103EC
:101340001367CFE70D4B1A6F42F004021A671A6F4A
:1013500042F001021A67C5E7FFF754F90646074B4A
:101360001B6F13F0020F11D0FFF74CF9801B41F2F5
:1013700088339842F3D9032092E000BF003802403E
:1013800000004742800E474200700040EDB9A3695B
:10139000002B00F08480454A926802F00C02082A73
:1013A00051D0022B17D0424B00221A60FFF72AF9C6
:1013B00004463E4B1B6813F0007F42D0FFF722F932
:1013C000001B0228F5D903206AE0384A136C23F089
:1013D00080531364DBE7364B00221A60FFF712F9E3
:1013E0000546324B1B6813F0007F06D0FFF70AF961
:1013F000401B0228F5D9032052E0E369226A134317
:10140000626A43EA8213A26A5208013A43EA02433B
:10141000E26A43EA0263254A5360254B01221A60BF
:10142000FFF7F0F80446214B1B6813F0007F06D14C
:10143000FFF7E8F8001B0228F5D9032030E0002070
:101440002EE000202CE0012B2CD0184B5B6803F41D
:101450008001E269914201D0012021E003F03F02C6
:10146000216A8A4201D001201AE0616A47F6C072FF
:101470001A408A4201D0012012E003F44032A16AEE
:101480008A4201D001200BE003F07063E26A9342CC
:101490000AD0012004E001207047012000E0002074
:1014A00002B070BD0120FBE70020F9E700380240E0
:1014B00060004742264B9B6803F00C03042B44D08A
:1014C000082B01D0234870472DE9F04B204B5A6878
:1014D00002F03F025B6813F4800F13D01C4B596875
:1014E000C1F3881100231C48A1FB0001FEF770FE28
:1014F000174B5B68C3F3014301335B00B0FBF3F0B0
:10150000BDE8F08B124B5B68C3F388131E460027BF
:101510005C010025E41A65EB0705A90141EA946125
:10152000A001001B61EB0501CB0043EA5073C4002E
:10153000A01943EB07018B0243EA90538402204633
:1015400019460023FEF744FED2E70348704700BF68
:10155000003802400024F40040787D01002800F0AB
:101560009E8070B50446504B1B6803F00F038B42FE
:1015700009D2CBB24C4A1370136803F00F038B42AD
:1015800001D0012070BD236813F0020F17D013F0B3
:10159000040F04D0454A936843F4E05393602368F2
:1015A00013F0080F04D0414A936843F460439360FA
:1015B0003E4A936823F0F003A068034393600D460E
:1015C000236813F0010F32D06368012B21D09A1EDB
:1015D000012A25D9354A126812F0020F61D0334929
:1015E0008A6822F0030213438B60FFF70BF806466C
:1015F0002E4B9B6803F00C036268B3EB820F16D08E
:10160000FFF700F8801B41F288339842F0D903209D
:10161000B8E7264A126812F4003FE0D10120B1E792
:10162000224A126812F0007FD9D10120AAE71E4B8E
:101630001B6803F00F03AB4209D9EAB21A4B1A70C8
:101640001B6803F00F03AB4201D001209AE7236827
:1016500013F0040F06D0154A936823F4E053E168B1
:101660000B439360236813F0080F07D00F4A936869
:1016700023F46043216943EAC1039360FFF71AFF33
:101680000A4B9B68C3F30313094AD35CD840094B48
:101690001860094B1868FEF76BFF002072E7012005
:1016A000704701206EE700BF003C02400038024056
:1016B000C83800080C00002004000020014B186806
:1016C000704700BF0C00002008B5FFF7F7FF044B80
:1016D0009B68C3F38223034AD35CD84008BD00BF94
:1016E00000380240D838000808B5FFF7E7FF044B80
:1016F0009B68C3F34233034AD35CD84008BD00BFA4
:1017000000380240D838000810B4036A046A24F094
:1017100001040462846924F0F00444EA021223F014
:101720000A030B43826103625DF8044B704710B4F7
:10173000036A23F0100303628469036A24F470448B
:1017400044EA023223F0A00343EA011382610362F8
:101750005DF8044B7047836823F07003194341F030
:101760000701816070470268D36843F00103D360CA
:101770000268936803F00703062B03D0136843F055
:10178000010313600020704770477047704770472F
:1017900010B5044603681A6912F0020F11D0DA6816
:1017A00012F0020F0DD06FF002021A6101230377CD
:1017B00003689B6913F0030F70D0FFF7E6FF002367
:1017C000237723681A6912F0040F12D0DA6812F036
:1017D000040F0ED06FF004021A61022323772368EE
:1017E0009B6913F4407F5FD02046FFF7CEFF0023B4
:1017F000237723681A6912F0080F12D0DA6812F002
:10180000080F0ED06FF008021A61042323772368B3
:10181000DB6913F0030F4ED02046FFF7B6FF00231D
:10182000237723681A6912F0100F12D0DA6812F0C9
:10183000100F0ED06FF010021A610823237723686F
:10184000DB6913F4407F3DD02046FFF79EFF002365
:10185000237723681A6912F0010F03D0DA6812F0B7
:10186000010F36D123681A6912F0800F03D0DA68AD
:1018700012F0800F34D123681A6912F0400F03D0A0
:10188000DA6812F0400F32D123681A6912F0200F83
:1018900003D0DA6812F0200F30D110BDFFF774FFCB
:1018A0002046FFF773FF8AE72046FFF76DFF2046CB
:1018B000FFF76CFF9BE72046FFF766FF2046FFF728
:1018C00065FFACE72046FFF75FFF2046FFF75EFFAE
:1018D000BDE76FF001021A61204600F053FFC1E737
:1018E0006FF080021A61204600F04BF9C3E76FF0F9
:1018F00040021A612046FFF74AFFC5E76FF0200259
:101900001A61204600F03CF9C7E700000368304A3E
:10191000904212D0B0F1804F0FD0A2F57C4290429D
:101920000BD002F58062904207D002F580629042AF
:1019300003D002F57842904203D123F070034A6845
:101940001343234A90422AD0B0F1804F27D0A2F50A
:101950007C42904223D002F5806290421FD002F573
:10196000806290421BD002F57842904217D002F577
:101970007052904213D002F5806290420FD002F56F
:10198000806290420BD0A2F59832904207D002F5C7
:101990008062904203D002F58062904203D123F42A
:1019A0004073CA68134323F080034A6913430360FA
:1019B0008B68C3620B688362054B984203D003F5C2
:1019C0008063984201D10B6903630123436170472F
:1019D00000000140A8B110B5044690F83D305BB15D
:1019E000022384F83D30211D2068FFF78FFF01237B
:1019F00084F83D30002010BD80F83C3001F0BAF989
:101A0000EEE70120704710B4846824F47F4442EA72
:101A100003230B43234383605DF8044B704790F826
:101A20003C30012B66D010B50446012380F83C30D1
:101A3000022380F83D300268936823F47F4323F04B
:101A4000770393600B68402B4AD013D9602B3DD0AD
:101A50001ED9702B28D0B3F5005F30D1CB684A680F
:101A600089680068FFF7CFFF2268936843F48043DA
:101A7000936024E0102B06D004D9202B03D0302B08
:101A800001D01CE0DBB919462068FFF764FE16E0C0
:101A9000502B14D1CA6849680068FFF735FE502101
:101AA0002068FFF758FE0AE0CB684A68896800683A
:101AB000FFF7A9FF2268936843F07703936001233F
:101AC00084F83D30002084F83C0010BDCA684968A5
:101AD0000068FFF72CFE60212068FFF73CFEEEE770
:101AE000CA6849680068FFF70FFE40212068FFF7C9
:101AF00032FEE4E70220704790F83C30012B3BD0E7
:101B000030B4012380F83C30022380F83D30036874
:101B10005C689D6824F070040A6822435A60036878
:101B2000164A93421AD0B3F1804F17D0A2F57C42E7
:101B3000934213D002F5806293420FD002F5806287
:101B400093420BD002F57842934207D002F57052CF
:101B5000934203D0A2F59432934204D125F080053C
:101B60004A6815439D60012380F83D30002380F8CA
:101B70003C30184630BC70470220704700000140DE
:101B8000704770470268D36823F49073D36002688B
:101B9000536923F001035361202380F83A307047E2
:101BA00090F83930DBB2212B2AD18368B3F5805FFE
:101BB00016D0036A5A1C02621A7803685A60C38CF2
:101BC000013B9BB2C384EBB90268D36823F0800366
:101BD000D3600268D36843F04003D36000207047AD
:101BE000036A1B880268C3F30803536003691BB9C7
:101BF000036A02330362E2E7036A01330362DEE74A
:101C000002207047002070472DE9F04B044602681F
:101C1000136923F44053C1680B431361836802695D
:101C2000134342691343C2691A430168CB6823F422
:101C3000164323F00C031343CB600268536923F46B
:101C4000407381690B435361C369B3F5004F3BD0C7
:101C50000368714A934200F0AB8002F580629342C0
:101C600000F0A680FFF730FD4FF00009061849EBA1
:101C7000090716EB000B47EB090C4FEACC0343EACC
:101C80005B734FEACB0293469C4663689A009B0FB6
:101C900010EB0B0049EB0C01FEF79AFA5F4DA5FB28
:101CA00000325109642202FB110213013233A5FBF9
:101CB00003235B0903F0F00202EB011203F00F03B0
:101CC000216813448B60A4E00368534A934239D0DF
:101CD00002F58062934235D0FFF7F6FC83464FF061
:101CE000000C06184CEB0C0716EB000847EB0C0930
:101CF0004FEAC90343EA58734FEAC802904699462F
:101D000062680021921841EB01031BEB08004CEBC9
:101D10000901FEF75DFA414DA5FB0032510964222D
:101D200002FB1102D3003233A5FB03235B095A00E7
:101D300002F4F87202EB011203F007032168134466
:101D40008B6066E0FFF7D0FC80464FF00009061874
:101D500049EB090716EB000B47EB090C4FEACC03E4
:101D600043EA5B734FEACB0293469C4662680021CC
:101D7000921841EB010318EB0B0049EB0C01FEF745
:101D800027FA264DA5FB00325109642202FB1102FD
:101D9000D3003233A5FB03235B095A0002F4F87227
:101DA00002EB011203F00703216813448B6030E05B
:101DB000FFF79AFC4FF00009061849EB090716EBEC
:101DC000000B47EB090C4FEACC0343EA5B734FEA85
:101DD000CB0293469C4663689A009B0F10EB0B0066
:101DE00049EB0C01FEF7F4F90C4DA5FB003251094B
:101DF000642202FB110213013233A5FB03235B09AA
:101E000003F0F00202EB011203F00F032168134408
:101E10008B60BDE8F08B00BF001001401F85EB51C7
:101E20002DE9F04105460F4616469846069C2B685C
:101E30001B6837EA03030CBF01230023B3421DD103
:101E4000B4F1FF3FF3D02CB1FEF7DCFBA0EB0800B0
:101E5000A042ECD92A68D36823F4D073D3602A68EF
:101E6000536923F001035361202385F8393085F845
:101E70003A30002385F83830032000E00020BDE828
:101E8000F08158B310B5044690F839300BB32423D1
:101E900084F839302268D36823F40053D360204695
:101EA000FFF7B2FE2268136923F49043136122689E
:101EB000536923F02A0353612268D36843F4005323
:101EC000D3600020E063202384F8393084F83A306E
:101ED00010BD80F8383000F0CDFFD8E70120704702
:101EE0002DE9F04383B01E4690F83930DBB2202B49
:101EF00056D104460D469046002956D0002A56D0A9
:101F000090F83830012B54D0012380F838304FF04E
:101F10000009C0F83C90212380F83930FEF772FBAD
:101F20000746A4F82480A4F8268084F8389010E0AE
:101F300000963B46002280212046FFF771FF0028D3
:101F400039D12B882268C3F3080353602369C3B9CE
:101F50000235E38C9BB2B3B1E38C013B9BB2E384CB
:101F6000A368B3F5805FE3D000963B460022802152
:101F70002046FFF755FF00BB2A7823685A600135D9
:101F8000E7E70135E5E700963B4600224021204681
:101F9000FFF746FF034690B9202284F8392000E07D
:101FA0000223184603B0BDE8F0830123F9E70123BB
:101FB000F7E70223F5E70323F3E70323F1E703231E
:101FC000EFE790F83A30DBB2202B20D109B312B3FF
:101FD00090F83830012B20D081628285C2850023A1
:101FE000C363222280F83A2080F838300168CA683A
:101FF00042F48072CA6001684A6942F001024A6193
:102000000168CA6842F02002CA6018467047022080
:1020100070470120704701207047022070477047C9
:1020200008B50168CB6823F04003CB60202380F81B
:102030003930FFF7F4FF002008BD08B590F83A30BA
:10204000DBB2222B45D18368B3F5805F0ED00369E4
:1020500003BB03685A68836A591C81621A70C38D76
:10206000013B9BB2C385F3B1002033E0826A036970
:1020700043B903685B68C3F308031380836A0233C0
:102080008362ECE703685B68DBB21380836A013329
:102090008362E4E703685B68826A511C816203F033
:1020A0007F031370DBE70268D36823F02003D3605B
:1020B0000268D36823F48073D3600268536923F005
:1020C00001035361202380F83A3000F07BFA0020AE
:1020D00000E0022008BD704710B50446026813688E
:1020E000D168526913F00F0005D113F0200F02D010
:1020F00011F0200F56D100286AD012F0010202D14F
:1021000011F4907F64D013F0010F06D011F4807F9A
:1021100003D0E06B40F00100E06313F0040F04D043
:102120001AB1E06B40F00200E06313F0020F04D03C
:102130001AB1E06B40F00400E06313F0080F07D021
:1021400011F0200F00D11AB1E26B42F00802E263F5
:10215000E26B002A48D013F0200F02D011F0200FBC
:1021600024D123685B6903F04003E26B12F0080F8F
:1021700000D13BB32046FFF705FD23685A6912F0F2
:10218000400F1BD05A6922F040025A61636B8BB139
:102190001A4A1A65606BFEF78FFE28B3606B036DF9
:1021A000984721E02046FFF748FF1DE02046FFF753
:1021B00044FFD6E72046FFF78EFF15E02046FFF7E5
:1021C0008AFF11E02046FFF786FF0023E3630BE060
:1021D00013F0800F02D011F0800F06D113F0400FE2
:1021E00002D011F0400F04D110BD2046FFF7D8FCFB
:1021F000FAE72046FFF714FFF6E700BF01220008C8
:1022000008B5806B0023C385C384FFF764FF08BD56
:1022100008B50D480D4B036007234360002383601E
:10222000C3604FF4003202614FF4801242610376C2
:1022300043768376C37603774377FEF7FDF900B9DB
:1022400008BD00F0EDFAFBE7340100200064004017
:1022500010B588B000230393049305930693079366
:102260000268194B9A4201D008B010BD00240194B5
:1022700003F5EA331A6C42F000721A641A6C02F029
:1022800000720192019A02941A6B42F001021A63E1
:102290001B6B03F001030293029B4FF4C0530393A3
:1022A00002230493032306930923079303A90748F2
:1022B000FEF716FE224621461420FEF7A5FD142047
:1022C000FEF7D6FDD0E700BF0064004000000240EA
:1022D000002209E0074B002143F8321003EBC20350
:1022E00059609961D9610132022AF3DD014B002264
:1022F0001A637047900000200138012801D900209E
:10230000704701207047000070B505460C46164620
:10231000FFF7F2FF68B104F2FF3240F2FE739A4217
:102320000AD8074840F8354000EBC5004660002059
:1023300070BD4FF0FF30FBE76FF00100F8E700BF22
:102340009000002070B506460D461446FFF7D4FFF6
:1023500040B1064800EBC60083692B60C369236067
:10236000002070BD4FF0FF30FBE700BF9000002061
:102370000F2951D813789809022802D9032805D0CB
:102380007047042900D17047FE207047032945D1CA
:1023900030B413F0200F1DD121490C6B5B0103F405
:1023A000E06355782B4301EBC4018C6923448B61B6
:1023B000137813F0040F1ED119490C6B1B0203F4A0
:1023C000E0639278134301EBC402D1690B44D361FB
:1023D00030BC7047124C216B5B0103F4E06355780D
:1023E0002B436FEA43536FEA535304EBC1018C69EB
:1023F00023448B61DCE70A4C216B1B0203F4E0638E
:10240000927813436FEA43536FEA535304EBC102CC
:10241000D1690B44D361DBE7FE207047FE20704793
:102420009000002030B4104C236B01332363022B47
:1024300002DD234601241C630B4C256B056003233E
:102440000B6054F83500431103F0380363F03F0389
:1024500004EBC5046168C1F3022423431370507078
:10246000917030BC704700BF90000020F0B58BB079
:1024700000240594069407940894099400942A4B28
:102480001A6B42F080021A631A6B02F0800200920B
:10249000009A01941A6B42F001021A631A6B02F05F
:1024A00001020192019A02941A6B42F002021A632D
:1024B0001A6B02F002020292029A03941A6B42F023
:1024C00008021A631A6B02F008020392039A04943A
:1024D0001A6B42F004021A631B6B03F004030493AB
:1024E000049B124F224620213846FEF7DDFD104D99
:1024F00022464FF400612846FEF7D6FD20230593BF
:10250000012606960794089405A93846FEF7E8FCCC
:102510004FF40063059306960794089405A928468E
:10252000FEF7DEFC0BB0F0BD0038024000000240B8
:10253000000C024030B595B03022002108A800F010
:102540006FFD002403940494059406940794019469
:102550001A4B1A6C42F080521A641B6C03F08053C1
:102560000193019B0294164B1A6842F480421A6050
:102570001B6803F480430293029B02250895012304
:102580000B9310230C930E950F9408231093542350
:10259000119312950423139308A8FEF795FD0F23BA
:1025A0000393049505944FF48053069307942946AA
:1025B00003A8FEF7D3FF15B030BD00BF00380240BE
:1025C000007000400268084B1B689A4200D07047B8
:1025D00010B5064C0821204600F046F90822214695
:1025E0000148FFF7EEFC10BD5C020020C400002093
:1025F00010B582B004468901C9B211438DF80010AC
:102600008DF80130049B8DF80230059B8DF8033066
:102610006420FDF7FDFF6A460421204600F018FA09
:1026200002B010BD10B592B0FDF7C6FFFFF782FFF4
:10263000FFF71CFFFFF7ECFD00F012FB00F04AFB78
:1026400000F070FB00F0FCFB00F0E0FB3C4800F009
:1026500051FA08223B493C48FFF7B3FCFFF738FE2C
:1026600000F0F8F81F220021384800F0AFF93224BA
:10267000019400942346002211460120FFF7B8FF81
:10268000019400942346002201210846FFF7B0FF81
:10269000019400942346002211460220FFF7A8FF70
:1026A000019400942346002201210220FFF7A0FF9D
:1026B0002748FFF758F82748FFF755F821E001228F
:1026C0004FF400612448FEF7EFFC22E000224FF4B3
:1026D00000612148FEF7E8FC20E04FF400611E484D
:1026E000FEF7E8FC1FE0E1000A1D08AB1A4419449C
:1026F0002046FFF727FE0134042CF4DD6420FDF7AB
:1027000087FF03A800F054F99DF80C30DBB2012BD1
:10271000D5D09DF80D30DBB2012BD7D09DF813300A
:10272000DBB2012BD9D09DF80C100C4800F0FCF95D
:102730009DF80D100A4800F0F7F90124DCE700BF0E
:102740001C020020C40000205C0200203401002094
:102750005C010020DC010020000C0240E038000891
:10276000E838000800B585B06A4602A903A800F061
:102770005BF96A4602990398FFF7FAFD05B05DF828
:1027800004FB000030B58FB004460268214B9A422A
:1027900005D02268204B9A422CD00FB030BD0023C8
:1027A000089309930A930B930C930D9303A800F0DD
:1027B000FFF89DF81030DBB2012B08D000229DF805
:1027C0001130DBB2012B05D00A9201250FE04FF446
:1027D000FA72F4E7114AF7E70EAB03EBC50353F8BF
:1027E000142C53F8181C2846FFF78EFD0135022DD6
:1027F000F2DDCEE7012301930323029308AA02A985
:1028000001A8FFF70FFE08AA0299019800F020F92D
:10281000C3E700BF00100040001400400CFEFFFFA3
:10282000704700000A4B00221A705A709A70DA70D2
:102830001A715A719A71DA711A725A729A72DA723C
:102840001A735A7340225A741A74DA739A7370475F
:10285000DC00002008B5FFF7E5FF024B00225A61BB
:102860009A6108BDDC00002070B506460D460024C4
:1028700087E04E4B00229A6189E04C4A2244127F45
:10288000134403F07F030134062CF6DD474A92F827
:1028900023209A4240F08180FFF7C4FF434B9B7F87
:1028A000C3F340024AB113F0010F06D03F4A0121A1
:1028B000117308E000230124E6E713F0010F0CD0A8
:1028C0003A4A01211170C3F3800262B113F0080F7C
:1028D00009D0364A012151730AE0002AF3D0334A65
:1028E00001215170EFE7002A43D0304A0121917055
:1028F00013F0100F02D02D4A0121117113F0200F97
:1029000002D02A4A0121517113F0400F02D0274B07
:1029100001229A71254B5B7F13F0010F02D0234AED
:102920000121D17113F0020F02D0204A012111724E
:1029300013F0040F02D01D4A0121517213F0080F49
:1029400002D01A4A0121917213F0100F02D0174BD6
:102950000122DA72154B93F820201A74DA7F5A7428
:1029600093F822209A7393F82120DA7300225A6197
:1029700013E013F0080FBBD00C4A0121D170B7E768
:102980000134AC4211DA315D80293FF472AF074B5C
:102990009A6913441977072A8CD0044B9B69072B3B
:1029A000EEDC0133014A9361EAE770BDDC000020F0
:1029B00030B40546044C0FCC28606960AA60EB6017
:1029C00023882B8230BC7047DC00002030B58BB0F0
:1029D000144C206000236360A36004E0114C1C448D
:1029E000002525730133072BF8DD0023059306939B
:1029F00007934901009101915201029203920493BD
:102A0000012308930E2309936946FDF7BBFE054C8D
:102A100002212068FEF79BF82068FDF749FF0BB004
:102A200030BD00BF0801002010B4084B5C68046092
:102A300098680860002304E004491944097BD154D4
:102A400001339842F8DC5DF8044B70470801002020
:102A500070B588B006460C461546114B1968114BE7
:102A60001868FDF7C8FFC0B90296002303930493CA
:102A70000593069405E0E95C08AA1A4402F8201CB4
:102A80000133A342F7DB064B6A4602A905480068FA
:102A9000FDF73CFF002008B070BD4FF0FF30FAE7B3
:102AA00008000020080100200268114B1868036824
:102AB0009A4200D0704700B58BB001AB03AA002149
:102AC000FDF7ABFF0A4B039A5A60079A9A600023FE
:102AD00007E00AAA1A4412F8241C054A1A44117382
:102AE0000133072BF5DDFFF73DFE0BB05DF804FB6E
:102AF00008010020014B1860704700BF1C01002036
:102B000038B50546002407E04FF4805301220548FC
:102B10000068FFF7E5F9013429192B5D002BF3D18B
:102B200038BD00BF1C0100200FB430B583B006AB28
:102B300053F8045B01932A460021084600F05CFB31
:102B4000013000F05DFA0446019A294600F078FB56
:102B50002046FFF7D5FF204600F05AFA03B0BDE843
:102B6000304004B07047000082B0002100910B4B50
:102B70005A6C42F480425A645A6C02F480420092C9
:102B8000009A01911A6C42F080521A641B6C03F097
:102B900080530193019B02B0704700BF0038024090
:102BA0007047FEE7FEE7FEE7FEE7704770477047B5
:102BB00008B5FDF71BFD08BD08B50248FDF7E5FFA8
:102BC00008BD00BF3401002008B50248FFF784FAB1
:102BD00008BD00BF1C02002008B50248FEF7D8FD62
:102BE00008BD00BF5C01002008B50248FEF7D0FD1B
:102BF00008BD00BFDC01002008B50248FFF76CFAF1
:102C000008BD00BF5C02002008B503460B4A1268ED
:102C100042B10A4A106803446A46934206D8074AFA
:102C2000136008BD054A06491160F2E700F0BEF9DD
:102C30000C2303604FF0FF30F3E700BF20010020BA
:102C4000A0020020054BD3F8882042F47002C3F89C
:102C500088204FF000629A60704700BF00ED00E0EE
:102C600000B587B000230293039304930593009368
:102C700001931648164A026053224260836040F274
:102C8000F311C160036142618361FEF7A3FE98B94D
:102C900006A94FF4805341F8103D0C48FEF7BFFEE3
:102CA00068B900230093019369460848FEF724FFA2
:102CB00040B907B05DF804FBFFF7B2FDE8E7FFF7A6
:102CC000AFFDEEE7FFF7ACFDF3E700BF9C0100208E
:102CD0000000014000B583B00023009301930F482A
:102CE0000F4A026023224260836042F20F72C26088
:102CF0008361FEF76FFE50B900230093019369468C
:102D00000648FEF7F9FE28B903B05DF804FBFFF7AB
:102D100087FDF1E7FFF784FDF6E700BF5C010020C7
:102D20000010004000B583B00023009301930F48CA
:102D30000F4A026023224260836040F2F312C260B5
:102D40008361FEF747FE50B9002300930193694663
:102D50000648FEF7D1FE28B903B05DF804FBFFF783
:102D60005FFDF1E7FFF75CFDF6E700BFDC01002047
:102D70000014004000B585B00368204A934208D093
:102D80001F4A934212D01F4A934223D005B05DF8E8
:102D900004FB002301931C4B5A6C42F001025A645D
:102DA0005B6C03F001030193019BEFE700220292A9
:102DB000154B196C41F0100119641B6C03F01003E2
:102DC0000293029B02213620FEF71EF83620FEF702
:102DD0004FF8DBE7002203920B4B196C41F0200106
:102DE00019641B6C03F020030393039B032137201A
:102DF000FEF70AF83720FEF73BF8C7E7000001406E
:102E000000100040001400400038024008B50A4895
:102E10000A4B03604FF4E133436000238360C360D7
:102E200003610C2242618361C361FFF72AF800B994
:102E300008BDFFF7F5FCFBE71C020020004800403E
:102E400008B50A480A4B03604FF4E133436000239E
:102E50008360C36003610C2242618361C361FFF739
:102E600010F800B908BDFFF7DBFCFBE75C020020AF
:102E70000014014010B58AB0002305930693079310
:102E80000893099303682F4A934204D02E4A934231
:102E90002DD00AB010BD002401942C4B1A6C42F4C2
:102EA00080221A641A6C02F480220192019A029420
:102EB0001A6B42F002021A631B6B03F002030293C7
:102EC000029B4FF440630593022306930323089368
:102ED0000723099305A91E48FEF702F8224601219F
:102EE0002720FDF791FF2720FDF7C2FFD1E700243F
:102EF0000394164B5A6C42F020025A645A6C02F04A
:102F000020020392039A04941A6B42F004021A639B
:102F10001B6B03F004030493049BC023059302235B
:102F20000693032308930823099305A90948FDF78D
:102F3000D7FF224604214720FDF766FF4720FDF713
:102F400097FFA6E700480040001401400038024007
:102F50000004024000080240DFF834D0002103E002
:102F60000C4B5B58435004310B480C4B42189A42AF
:102F7000F6D30B4A02E0002342F8043B094B9A4285
:102F8000F9D3FFF75FFE00F017F8FFF74BFB704730
:102F900000000220383900080000002074000020E2
:102FA00074000020A0020020FEE70000014B18681A
:102FB000704700BF1000002070B50D4E0D4CA41BD3
:102FC000A4100025A54209D10B4E0C4C00F070FC5A
:102FD000A41BA4100025A54205D170BD56F82530CC
:102FE00098470135EEE756F8253098470135F2E766
:102FF0003039000830390008303900083439000809
:10300000024B0146186800F061B800BF10000020B4
:10301000024B0146186800F00BB800BF10000020FA
:1030200002440346934200D1704703F8011BF9E7BD
:1030300038B50546002945D051F8043C0C1F002B3B
:10304000B8BFE41800F006F91F4A1368104633B9F8
:10305000636014602846BDE8384000F0FCB8A34225
:103060000CD921686218934204BF1A685B686360D8
:1030700004BF521822600460ECE713465A680AB194
:10308000A242FAD919685818A0420BD1206801440D
:10309000581882421960DDD1106852685A600144A4
:1030A0001960D7E702D90C232B60D3E720682118D9
:1030B0008A4204BF11685268626004BF0918216027
:1030C0005C60C7E738BD00BF2801002070B5CD1C8B
:1030D00025F0030508350C2D38BF0C25002D0646BC
:1030E00001DBA94203D90C233360002070BD00F03E
:1030F000B1F8214A1468214691B9204C23681BB9C4
:10310000304600F03DF820602946304600F038F89F
:10311000431C24D10C233360304600F09CF8E4E7D4
:103120000B685B1B18D40B2B0FD90B60CD50CC1840
:10313000304600F090F804F10B00231D20F007004A
:10314000C31AD3D05A42E250D0E78C424B6816BF24
:10315000636013600C46EBE70C464968CCE7C41C7F
:1031600024F00304A04205D0211A304600F008F8EC
:103170000130CFD02560DBE7280100202C010020A2
:1031800038B5064C0023054608462360FFF73CFD92
:10319000431C02D1236803B12B6038BD9C02002080
:1031A00030B5141E05469BB0184605DA8B232B60FC
:1031B0004FF0FF301BB030BD4FF40273ADF80C3050
:1031C00014BF04F1FF332346029305934FF6FF73B8
:1031D00000910491ADF80E3002461E9B69462846C8
:1031E00000F094F8431CBCBF8B232B60002CE1D073
:1031F000009B00221A70DDE707B5009313460A46CC
:10320000014603480068FFF7CBFF03B05DF804FBFD
:103210001000002000B59BB0009104916FF00041B8
:103220000591029105490391694600F06FF8009BF2
:1032300000221A701BB05DF804FB00BF0802FFFFFC
:1032400013460A46014602480068FFF7E3BF00BF85
:1032500010000020704770472DE9F0478E689E42AD
:1032600082460C469046994637D88A8912F4906F68
:1032700031D0256809696F1A6569022305EB450598
:1032800095FBF3F509F101033B449D4238BF1D4610
:10329000530530D52946FFF719FF064650B90C23D0
:1032A000CAF80030A38943F04003A3814FF0FF30F8
:1032B000BDE8F0873A46216900F0A8FAA38923F413
:1032C000906343F08003A381266165613E44ED1B5A
:1032D0002660A5604E464E4500D94E4632464146D0
:1032E000206800F09EFAA3689B1BA36023681E441D
:1032F00026600020DCE72A4600F0ACFA06460028EB
:10330000E2D121695046FFF793FEC8E72DE9F04F5F
:103310001D468B891F069DB080460C4616460FD56C
:103320000B696BB94021FFF7D1FE2060206128B9FD
:103330000C23C8F800304FF0FF30C8E04023636131
:103340000023099320238DF8293030238DF82A306B
:1033500003954FF0010B37463D4615F8013B0BB185
:10336000252B3ED1B7EB060A0BD0534632462146F9
:103370004046FFF771FF013000F0A480099B5344E1
:1033800009933B78002B00F09D8000234FF0FF3223
:10339000CDE90523049307938DF853301A932F46F4
:1033A000052217F8011B5048FDF792F8049BD0B98D
:1033B000D90644BF20228DF853201A0744BF2B2280
:1033C0008DF853202A782A2A15D0079A2F460020F4
:1033D0000A25394611F8013B303B092B4DD9B8B1CC
:1033E0000FE02F46B8E7404A801A0BFA00F0184366
:1033F00004903D46D3E7039A111D12680391002AF9
:1034000001DB079204E0524243F002030792049367
:103410003B782E2B0CD17B782A2B33D1039B1A1DA2
:103420001B680392002BB8BF4FF0FF3302370593A0
:103430002E4D397803222846FDF74AF838B140234B
:10344000401B03FA00F0049B0343013704933978CF
:1034500027488DF8281006227E1CFDF739F8002831
:1034600038D0244B13BB039B073323F007030833E7
:103470000393099B4B4409936DE705FB023201203E
:103480000F46A6E700230137059319460A2538465B
:1034900010F8012B303A092A03D9002BC8D0059126
:1034A000C6E705FB012101230746F0E703AB0093C4
:1034B0002246114B04A94046AFF30080B0F1FF3F14
:1034C0008146D6D1A3895B063FF535AF09981DB07B
:1034D000BDE8F08F03AB00932246074B04A940469A
:1034E00000F082F8EAE700BFF4380008FA38000874
:1034F000FE38000800000000593200082DE9F047AE
:1035000091461F468A680B69DDF820809342B8BF58
:103510001346C9F8003091F8432006460C4612B114
:103520000133C9F800302368990642BFD9F800304A
:103530000233C9F80030256815F0060507D104F1FB
:10354000190AE368D9F800209B1AAB4228DC94F8EA
:1035500043302268003318BF012392062DD404F1B2
:10356000430239463046C047013020D02368E56821
:10357000D9F8002003F00603042B08BFAD1AA36896
:1035800022690CBF25EAE57500259342C4BF9B1A4A
:10359000ED184FF000091A344D451AD1002008E00B
:1035A0000123524639463046C047013003D14FF01F
:1035B000FF30BDE8F0870135C3E7E1185A1C302021
:1035C00081F84300224494F8451082F843100233F6
:1035D000C5E70123224639463046C0470130E6D0D0
:1035E00009F10109D8E700002DE9F04301F1430C8E
:1035F0000C46097E85B06E291746064698460C9AF9
:1036000000F0B38022D8632936D00AD8002900F010
:10361000B980582900F0838004F1420584F84210F3
:1036200032E0642901D06929F6D1206813680506C3
:1036300003F104012AD51B681160002B03DA2D2247
:103640005B4284F843206F480A2239E0732900F076
:103650009D8008D86F2920D07029DDD1236843F0E0
:103660002003236003E0752917D07829D4D178236B
:1036700084F84530644855E01368191D1B681160D3
:1036800004F1420584F8423001238CE01B6811608C
:1036900010F0400F18BF1BB2CFE713682568181D44
:1036A0001060280601D51B6802E06806FBD51B8860
:1036B00054486F2914BF0A220822002184F84310BD
:1036C0006568A560002DC0F29580216821F0040195
:1036D0002160002B3DD1002D40F08E806546082AE8
:1036E0000BD12368DB0708D5236962689A42DEBFE5
:1036F000302305F8013C05F1FF35ACEB05032361F0
:10370000CDF800803B4603AA21463046FFF7F6FE7F
:1037100001304DD14FF0FF3005B0BDE8F08339489E
:1037200084F84510136821681D1D1B6815600A0682
:103730000BD5CA0744BF41F0200121601BB92268A4
:1037400022F0200222601022B7E74D0648BF9BB24C
:10375000EFE76546B3FBF2F102FB1133C35C05F8FA
:10376000013D0B460029F5D1B9E713682568616969
:10377000181D106028061B6801D5196002E06A0652
:10378000FBD51980002323616546B9E71368191D2D
:1037900011601D68626800212846FCF799FE08B197
:1037A000401B606063682361002384F84330A7E70F
:1037B00023692A4639463046C0470130AAD02368DB
:1037C0009B0713D4E068039B9842B8BF1846A3E751
:1037D00001234A4639463046C04701309AD0013568
:1037E000E368039A9B1AAB42F2DCEBE7002504F195
:1037F0001909F5E7002BACD1037884F8423004F1C5
:1038000042056CE7053900081639000810B5431E5B
:103810000A44914200D110BD11F8014B03F8014F49
:10382000F7E7884210B501EB020307D8421E994220
:103830000AD011F8014B02F8014FF8E78342F5D99D
:103840008118D21AD34200D110BD13F8014D01F8EE
:10385000014DF7E7F8B5074614460E4621B9114663
:10386000BDE8F840FFF732BC22B9FFF7E1FB25467F
:103870002846F8BD00F014F8A0420FD22146384681
:10388000FFF724FC05460028F2D031462246FFF718
:10389000BDFF31463846FFF7CBFBE9E73546E7E7A2
:1038A00051F8043C181F002BBCBF0B58C0187047C0
:1038B000F8B500BFF8BC08BC9E467047F8B500BF1D
:0838C000F8BC08BC9E467047ED
:1038C80000000000000000000102030406070809C8
:1038D800000000000102030475703D25640A0D0014
:1038E800646F776E3D25640A0D000000232D302B90
:1038F8002000686C4C0065666745464700303132E9
:10390800333435363738394142434445460030313F
:10391800323334353637383961626364656600009E
:08392800D8C8FF7F0100000078
:04393000B5010008D5
:0439340091010008F5
:103938000100000010000000010000000024F40055
:10394800140000200000000000000000000000003B
:10395800000000000000000000000000000000005F
:10396800000000000000000000000000000000004F
:10397800000000000000000000000000000000003F
:10398800000000000000000000000000000000002F
:10399800000000000000000000000000000000001F
:0439A800000000001B
:0400000508002F5967
:00000001FF
